{
  "_format": "hh-sol-artifact-1",
  "contractName": "Marketplace",
  "sourceName": "contracts/Marketplace.sol",
  "abi": [
    {
      "inputs": [],
      "stateMutability": "nonpayable",
      "type": "constructor"
    },
    {
      "inputs": [
        {
          "internalType": "address",
          "name": "sender",
          "type": "address"
        },
        {
          "internalType": "uint256",
          "name": "tokenId",
          "type": "uint256"
        },
        {
          "internalType": "address",
          "name": "owner",
          "type": "address"
        }
      ],
      "name": "ERC721IncorrectOwner",
      "type": "error"
    },
    {
      "inputs": [
        {
          "internalType": "address",
          "name": "operator",
          "type": "address"
        },
        {
          "internalType": "uint256",
          "name": "tokenId",
          "type": "uint256"
        }
      ],
      "name": "ERC721InsufficientApproval",
      "type": "error"
    },
    {
      "inputs": [
        {
          "internalType": "address",
          "name": "approver",
          "type": "address"
        }
      ],
      "name": "ERC721InvalidApprover",
      "type": "error"
    },
    {
      "inputs": [
        {
          "internalType": "address",
          "name": "operator",
          "type": "address"
        }
      ],
      "name": "ERC721InvalidOperator",
      "type": "error"
    },
    {
      "inputs": [
        {
          "internalType": "address",
          "name": "owner",
          "type": "address"
        }
      ],
      "name": "ERC721InvalidOwner",
      "type": "error"
    },
    {
      "inputs": [
        {
          "internalType": "address",
          "name": "receiver",
          "type": "address"
        }
      ],
      "name": "ERC721InvalidReceiver",
      "type": "error"
    },
    {
      "inputs": [
        {
          "internalType": "address",
          "name": "sender",
          "type": "address"
        }
      ],
      "name": "ERC721InvalidSender",
      "type": "error"
    },
    {
      "inputs": [
        {
          "internalType": "uint256",
          "name": "tokenId",
          "type": "uint256"
        }
      ],
      "name": "ERC721NonexistentToken",
      "type": "error"
    },
    {
      "inputs": [
        {
          "internalType": "address",
          "name": "owner",
          "type": "address"
        }
      ],
      "name": "OwnableInvalidOwner",
      "type": "error"
    },
    {
      "inputs": [
        {
          "internalType": "address",
          "name": "account",
          "type": "address"
        }
      ],
      "name": "OwnableUnauthorizedAccount",
      "type": "error"
    },
    {
      "inputs": [],
      "name": "ReentrancyGuardReentrantCall",
      "type": "error"
    },
    {
      "anonymous": false,
      "inputs": [
        {
          "indexed": true,
          "internalType": "address",
          "name": "owner",
          "type": "address"
        },
        {
          "indexed": true,
          "internalType": "address",
          "name": "approved",
          "type": "address"
        },
        {
          "indexed": true,
          "internalType": "uint256",
          "name": "tokenId",
          "type": "uint256"
        }
      ],
      "name": "Approval",
      "type": "event"
    },
    {
      "anonymous": false,
      "inputs": [
        {
          "indexed": true,
          "internalType": "address",
          "name": "owner",
          "type": "address"
        },
        {
          "indexed": true,
          "internalType": "address",
          "name": "operator",
          "type": "address"
        },
        {
          "indexed": false,
          "internalType": "bool",
          "name": "approved",
          "type": "bool"
        }
      ],
      "name": "ApprovalForAll",
      "type": "event"
    },
    {
      "anonymous": false,
      "inputs": [
        {
          "indexed": false,
          "internalType": "uint256",
          "name": "value",
          "type": "uint256"
        }
      ],
      "name": "DebugValueReceived",
      "type": "event"
    },
    {
      "anonymous": false,
      "inputs": [
        {
          "indexed": false,
          "internalType": "uint256",
          "name": "tokenId",
          "type": "uint256"
        },
        {
          "indexed": false,
          "internalType": "address",
          "name": "seller",
          "type": "address"
        },
        {
          "indexed": false,
          "internalType": "uint96",
          "name": "price",
          "type": "uint96"
        }
      ],
      "name": "ItemListed",
      "type": "event"
    },
    {
      "anonymous": false,
      "inputs": [
        {
          "indexed": false,
          "internalType": "uint256",
          "name": "tokenId",
          "type": "uint256"
        },
        {
          "indexed": false,
          "internalType": "address",
          "name": "buyer",
          "type": "address"
        },
        {
          "indexed": false,
          "internalType": "uint96",
          "name": "price",
          "type": "uint96"
        }
      ],
      "name": "ItemSold",
      "type": "event"
    },
    {
      "anonymous": false,
      "inputs": [
        {
          "indexed": true,
          "internalType": "address",
          "name": "previousOwner",
          "type": "address"
        },
        {
          "indexed": true,
          "internalType": "address",
          "name": "newOwner",
          "type": "address"
        }
      ],
      "name": "OwnershipTransferred",
      "type": "event"
    },
    {
      "anonymous": false,
      "inputs": [
        {
          "indexed": true,
          "internalType": "address",
          "name": "from",
          "type": "address"
        },
        {
          "indexed": true,
          "internalType": "address",
          "name": "to",
          "type": "address"
        },
        {
          "indexed": true,
          "internalType": "uint256",
          "name": "tokenId",
          "type": "uint256"
        }
      ],
      "name": "Transfer",
      "type": "event"
    },
    {
      "inputs": [],
      "name": "MAX_SUPPLY",
      "outputs": [
        {
          "internalType": "uint96",
          "name": "",
          "type": "uint96"
        }
      ],
      "stateMutability": "view",
      "type": "function"
    },
    {
      "inputs": [
        {
          "internalType": "address",
          "name": "to",
          "type": "address"
        },
        {
          "internalType": "uint256",
          "name": "tokenId",
          "type": "uint256"
        }
      ],
      "name": "approve",
      "outputs": [],
      "stateMutability": "nonpayable",
      "type": "function"
    },
    {
      "inputs": [],
      "name": "approveMarketplace",
      "outputs": [],
      "stateMutability": "nonpayable",
      "type": "function"
    },
    {
      "inputs": [
        {
          "internalType": "address",
          "name": "owner",
          "type": "address"
        }
      ],
      "name": "balanceOf",
      "outputs": [
        {
          "internalType": "uint256",
          "name": "",
          "type": "uint256"
        }
      ],
      "stateMutability": "view",
      "type": "function"
    },
    {
      "inputs": [
        {
          "internalType": "uint256",
          "name": "_tokenId",
          "type": "uint256"
        }
      ],
      "name": "buy",
      "outputs": [],
      "stateMutability": "payable",
      "type": "function"
    },
    {
      "inputs": [
        {
          "internalType": "uint256",
          "name": "tokenId",
          "type": "uint256"
        }
      ],
      "name": "getApproved",
      "outputs": [
        {
          "internalType": "address",
          "name": "",
          "type": "address"
        }
      ],
      "stateMutability": "view",
      "type": "function"
    },
    {
      "inputs": [
        {
          "internalType": "uint256",
          "name": "_tokenId",
          "type": "uint256"
        }
      ],
      "name": "getListing",
      "outputs": [
        {
          "internalType": "address",
          "name": "",
          "type": "address"
        },
        {
          "internalType": "uint96",
          "name": "",
          "type": "uint96"
        },
        {
          "internalType": "bool",
          "name": "",
          "type": "bool"
        },
        {
          "internalType": "string",
          "name": "",
          "type": "string"
        }
      ],
      "stateMutability": "view",
      "type": "function"
    },
    {
      "inputs": [],
      "name": "getTotalListings",
      "outputs": [
        {
          "internalType": "uint256",
          "name": "",
          "type": "uint256"
        }
      ],
      "stateMutability": "view",
      "type": "function"
    },
    {
      "inputs": [
        {
          "internalType": "address",
          "name": "owner",
          "type": "address"
        },
        {
          "internalType": "address",
          "name": "operator",
          "type": "address"
        }
      ],
      "name": "isApprovedForAll",
      "outputs": [
        {
          "internalType": "bool",
          "name": "",
          "type": "bool"
        }
      ],
      "stateMutability": "view",
      "type": "function"
    },
    {
      "inputs": [],
      "name": "listingCount",
      "outputs": [
        {
          "internalType": "uint256",
          "name": "",
          "type": "uint256"
        }
      ],
      "stateMutability": "view",
      "type": "function"
    },
    {
      "inputs": [
        {
          "internalType": "uint256",
          "name": "",
          "type": "uint256"
        }
      ],
      "name": "listings",
      "outputs": [
        {
          "internalType": "address",
          "name": "seller",
          "type": "address"
        },
        {
          "internalType": "uint96",
          "name": "price",
          "type": "uint96"
        },
        {
          "internalType": "bool",
          "name": "isSold",
          "type": "bool"
        },
        {
          "internalType": "string",
          "name": "uri",
          "type": "string"
        }
      ],
      "stateMutability": "view",
      "type": "function"
    },
    {
      "inputs": [
        {
          "internalType": "string[]",
          "name": "_uris",
          "type": "string[]"
        },
        {
          "internalType": "uint96[]",
          "name": "_prices",
          "type": "uint96[]"
        }
      ],
      "name": "mintAndList",
      "outputs": [],
      "stateMutability": "nonpayable",
      "type": "function"
    },
    {
      "inputs": [],
      "name": "name",
      "outputs": [
        {
          "internalType": "string",
          "name": "",
          "type": "string"
        }
      ],
      "stateMutability": "view",
      "type": "function"
    },
    {
      "inputs": [],
      "name": "owner",
      "outputs": [
        {
          "internalType": "address",
          "name": "",
          "type": "address"
        }
      ],
      "stateMutability": "view",
      "type": "function"
    },
    {
      "inputs": [
        {
          "internalType": "uint256",
          "name": "tokenId",
          "type": "uint256"
        }
      ],
      "name": "ownerOf",
      "outputs": [
        {
          "internalType": "address",
          "name": "",
          "type": "address"
        }
      ],
      "stateMutability": "view",
      "type": "function"
    },
    {
      "inputs": [
        {
          "internalType": "address",
          "name": "",
          "type": "address"
        }
      ],
      "name": "pendingWithdrawals",
      "outputs": [
        {
          "internalType": "uint256",
          "name": "",
          "type": "uint256"
        }
      ],
      "stateMutability": "view",
      "type": "function"
    },
    {
      "inputs": [],
      "name": "renounceOwnership",
      "outputs": [],
      "stateMutability": "nonpayable",
      "type": "function"
    },
    {
      "inputs": [
        {
          "internalType": "address",
          "name": "from",
          "type": "address"
        },
        {
          "internalType": "address",
          "name": "to",
          "type": "address"
        },
        {
          "internalType": "uint256",
          "name": "tokenId",
          "type": "uint256"
        }
      ],
      "name": "safeTransferFrom",
      "outputs": [],
      "stateMutability": "nonpayable",
      "type": "function"
    },
    {
      "inputs": [
        {
          "internalType": "address",
          "name": "from",
          "type": "address"
        },
        {
          "internalType": "address",
          "name": "to",
          "type": "address"
        },
        {
          "internalType": "uint256",
          "name": "tokenId",
          "type": "uint256"
        },
        {
          "internalType": "bytes",
          "name": "data",
          "type": "bytes"
        }
      ],
      "name": "safeTransferFrom",
      "outputs": [],
      "stateMutability": "nonpayable",
      "type": "function"
    },
    {
      "inputs": [
        {
          "internalType": "address",
          "name": "operator",
          "type": "address"
        },
        {
          "internalType": "bool",
          "name": "approved",
          "type": "bool"
        }
      ],
      "name": "setApprovalForAll",
      "outputs": [],
      "stateMutability": "nonpayable",
      "type": "function"
    },
    {
      "inputs": [
        {
          "internalType": "bytes4",
          "name": "interfaceId",
          "type": "bytes4"
        }
      ],
      "name": "supportsInterface",
      "outputs": [
        {
          "internalType": "bool",
          "name": "",
          "type": "bool"
        }
      ],
      "stateMutability": "view",
      "type": "function"
    },
    {
      "inputs": [],
      "name": "symbol",
      "outputs": [
        {
          "internalType": "string",
          "name": "",
          "type": "string"
        }
      ],
      "stateMutability": "view",
      "type": "function"
    },
    {
      "inputs": [
        {
          "internalType": "uint256",
          "name": "tokenId",
          "type": "uint256"
        }
      ],
      "name": "tokenURI",
      "outputs": [
        {
          "internalType": "string",
          "name": "",
          "type": "string"
        }
      ],
      "stateMutability": "view",
      "type": "function"
    },
    {
      "inputs": [
        {
          "internalType": "address",
          "name": "from",
          "type": "address"
        },
        {
          "internalType": "address",
          "name": "to",
          "type": "address"
        },
        {
          "internalType": "uint256",
          "name": "tokenId",
          "type": "uint256"
        }
      ],
      "name": "transferFrom",
      "outputs": [],
      "stateMutability": "nonpayable",
      "type": "function"
    },
    {
      "inputs": [
        {
          "internalType": "address",
          "name": "newOwner",
          "type": "address"
        }
      ],
      "name": "transferOwnership",
      "outputs": [],
      "stateMutability": "nonpayable",
      "type": "function"
    },
    {
      "inputs": [],
      "name": "withdraw",
      "outputs": [],
      "stateMutability": "nonpayable",
      "type": "function"
    }
  ],
  "bytecode": "0x60806040526000600c5534801561001557600080fd5b50336040518060400160405280600a81526020017f4e4654204d61726b6574000000000000000000000000000000000000000000008152506040518060400160405280600481526020017f4e46544d000000000000000000000000000000000000000000000000000000008152508160009081610092919061044a565b5080600190816100a2919061044a565b505050600073ffffffffffffffffffffffffffffffffffffffff168173ffffffffffffffffffffffffffffffffffffffff16036101175760006040517f1e4fbdf700000000000000000000000000000000000000000000000000000000815260040161010e919061055d565b60405180910390fd5b6101268161013460201b60201c565b506001600781905550610578565b6000600660009054906101000a900473ffffffffffffffffffffffffffffffffffffffff16905081600660006101000a81548173ffffffffffffffffffffffffffffffffffffffff021916908373ffffffffffffffffffffffffffffffffffffffff1602179055508173ffffffffffffffffffffffffffffffffffffffff168173ffffffffffffffffffffffffffffffffffffffff167f8be0079c531659141344cd1fd0a4f28419497f9722a3daafe3b4186f6b6457e060405160405180910390a35050565b600081519050919050565b7f4e487b7100000000000000000000000000000000000000000000000000000000600052604160045260246000fd5b7f4e487b7100000000000000000000000000000000000000000000000000000000600052602260045260246000fd5b6000600282049050600182168061027b57607f821691505b60208210810361028e5761028d610234565b5b50919050565b60008190508160005260206000209050919050565b60006020601f8301049050919050565b600082821b905092915050565b6000600883026102f67fffffffffffffffffffffffffffffffffffffffffffffffffffffffffffffffff826102b9565b61030086836102b9565b95508019841693508086168417925050509392505050565b6000819050919050565b6000819050919050565b600061034761034261033d84610318565b610322565b610318565b9050919050565b6000819050919050565b6103618361032c565b61037561036d8261034e565b8484546102c6565b825550505050565b600090565b61038a61037d565b610395818484610358565b505050565b5b818110156103b9576103ae600082610382565b60018101905061039b565b5050565b601f8211156103fe576103cf81610294565b6103d8846102a9565b810160208510156103e7578190505b6103fb6103f3856102a9565b83018261039a565b50505b505050565b600082821c905092915050565b600061042160001984600802610403565b1980831691505092915050565b600061043a8383610410565b9150826002028217905092915050565b610453826101fa565b67ffffffffffffffff81111561046c5761046b610205565b5b6104768254610263565b6104818282856103bd565b600060209050601f8311600181146104b457600084156104a2578287015190505b6104ac858261042e565b865550610514565b601f1984166104c286610294565b60005b828110156104ea578489015182556001820191506020850194506020810190506104c5565b868310156105075784890151610503601f891682610410565b8355505b6001600288020188555050505b505050505050565b600073ffffffffffffffffffffffffffffffffffffffff82169050919050565b60006105478261051c565b9050919050565b6105578161053c565b82525050565b6000602082019050610572600083018461054e565b92915050565b613811806105876000396000f3fe6080604052600436106101815760003560e01c806395d89b41116100d1578063d5728f181161008a578063e985e9c511610064578063e985e9c514610565578063f2fde38b146105a2578063f3f43703146105cb578063fbf30c351461060857610181565b8063d5728f18146104f2578063d96a094a14610509578063de74e57b1461052557610181565b806395d89b41146103e4578063a22cb4651461040f578063a9b07c2614610438578063b88d4fde14610463578063c87b56dd1461048c578063cd1d9dc0146104c957610181565b806332cb6b0c1161013e5780636352211e116101185780636352211e1461032857806370a0823114610365578063715018a6146103a25780638da5cb5b146103b957610181565b806332cb6b0c146102bd5780633ccfd60b146102e857806342842e0e146102ff57610181565b806301ffc9a71461018657806306fdde03146101c3578063081812fc146101ee578063095ea7b31461022b578063107a274a1461025457806323b872dd14610294575b600080fd5b34801561019257600080fd5b506101ad60048036038101906101a891906125cd565b610633565b6040516101ba9190612615565b60405180910390f35b3480156101cf57600080fd5b506101d8610715565b6040516101e591906126c0565b60405180910390f35b3480156101fa57600080fd5b5061021560048036038101906102109190612718565b6107a7565b6040516102229190612786565b60405180910390f35b34801561023757600080fd5b50610252600480360381019061024d91906127cd565b6107c3565b005b34801561026057600080fd5b5061027b60048036038101906102769190612718565b6107d9565b60405161028b9493929190612834565b60405180910390f35b3480156102a057600080fd5b506102bb60048036038101906102b69190612880565b610967565b005b3480156102c957600080fd5b506102d2610a69565b6040516102df91906128d3565b60405180910390f35b3480156102f457600080fd5b506102fd610a6f565b005b34801561030b57600080fd5b5061032660048036038101906103219190612880565b610bfb565b005b34801561033457600080fd5b5061034f600480360381019061034a9190612718565b610c1b565b60405161035c9190612786565b60405180910390f35b34801561037157600080fd5b5061038c600480360381019061038791906128ee565b610c2d565b604051610399919061292a565b60405180910390f35b3480156103ae57600080fd5b506103b7610ce7565b005b3480156103c557600080fd5b506103ce610cfb565b6040516103db9190612786565b60405180910390f35b3480156103f057600080fd5b506103f9610d25565b60405161040691906126c0565b60405180910390f35b34801561041b57600080fd5b5061043660048036038101906104319190612971565b610db7565b005b34801561044457600080fd5b5061044d610dcd565b60405161045a919061292a565b60405180910390f35b34801561046f57600080fd5b5061048a60048036038101906104859190612ae6565b610dd3565b005b34801561049857600080fd5b506104b360048036038101906104ae9190612718565b610df8565b6040516104c091906126c0565b60405180910390f35b3480156104d557600080fd5b506104f060048036038101906104eb9190612ddf565b610eff565b005b3480156104fe57600080fd5b50610507611221565b005b610523600480360381019061051e9190612718565b611236565b005b34801561053157600080fd5b5061054c60048036038101906105479190612718565b6114f6565b60405161055c9493929190612834565b60405180910390f35b34801561057157600080fd5b5061058c60048036038101906105879190612e57565b6115f3565b6040516105999190612615565b60405180910390f35b3480156105ae57600080fd5b506105c960048036038101906105c491906128ee565b611687565b005b3480156105d757600080fd5b506105f260048036038101906105ed91906128ee565b61170d565b6040516105ff919061292a565b60405180910390f35b34801561061457600080fd5b5061061d611725565b60405161062a919061292a565b60405180910390f35b60007f80ac58cd000000000000000000000000000000000000000000000000000000007bffffffffffffffffffffffffffffffffffffffffffffffffffffffff1916827bffffffffffffffffffffffffffffffffffffffffffffffffffffffff191614806106fe57507f5b5e139f000000000000000000000000000000000000000000000000000000007bffffffffffffffffffffffffffffffffffffffffffffffffffffffff1916827bffffffffffffffffffffffffffffffffffffffffffffffffffffffff1916145b8061070e575061070d8261172f565b5b9050919050565b60606000805461072490612ec6565b80601f016020809104026020016040519081016040528092919081815260200182805461075090612ec6565b801561079d5780601f106107725761010080835404028352916020019161079d565b820191906000526020600020905b81548152906001019060200180831161078057829003601f168201915b5050505050905090565b60006107b282611799565b506107bc82611821565b9050919050565b6107d582826107d061185e565b611866565b5050565b600080600060606000600860008781526020019081526020016000206040518060800160405290816000820160009054906101000a900473ffffffffffffffffffffffffffffffffffffffff1673ffffffffffffffffffffffffffffffffffffffff1673ffffffffffffffffffffffffffffffffffffffff1681526020016000820160149054906101000a90046bffffffffffffffffffffffff166bffffffffffffffffffffffff166bffffffffffffffffffffffff1681526020016001820160009054906101000a900460ff161515151581526020016002820180546108bf90612ec6565b80601f01602080910402602001604051908101604052809291908181526020018280546108eb90612ec6565b80156109385780601f1061090d57610100808354040283529160200191610938565b820191906000526020600020905b81548152906001019060200180831161091b57829003601f168201915b505050505081525050905080600001518160200151826040015183606001519450945094509450509193509193565b600073ffffffffffffffffffffffffffffffffffffffff168273ffffffffffffffffffffffffffffffffffffffff16036109d95760006040517f64a0ae920000000000000000000000000000000000000000000000000000000081526004016109d09190612786565b60405180910390fd5b60006109ed83836109e861185e565b611878565b90508373ffffffffffffffffffffffffffffffffffffffff168173ffffffffffffffffffffffffffffffffffffffff1614610a63578382826040517f64283d7b000000000000000000000000000000000000000000000000000000008152600401610a5a93929190612ef7565b60405180910390fd5b50505050565b6103e881565b610a77611a92565b6000600960003373ffffffffffffffffffffffffffffffffffffffff1673ffffffffffffffffffffffffffffffffffffffff16815260200190815260200160002054905060008111610afe576040517f08c379a0000000000000000000000000000000000000000000000000000000008152600401610af590612f7a565b60405180910390fd5b6000600960003373ffffffffffffffffffffffffffffffffffffffff1673ffffffffffffffffffffffffffffffffffffffff1681526020019081526020016000208190555060003373ffffffffffffffffffffffffffffffffffffffff1682604051610b6990612fcb565b60006040518083038185875af1925050503d8060008114610ba6576040519150601f19603f3d011682016040523d82523d6000602084013e610bab565b606091505b5050905080610bef576040517f08c379a0000000000000000000000000000000000000000000000000000000008152600401610be69061302c565b60405180910390fd5b5050610bf9611ad8565b565b610c1683838360405180602001604052806000815250610dd3565b505050565b6000610c2682611799565b9050919050565b60008073ffffffffffffffffffffffffffffffffffffffff168273ffffffffffffffffffffffffffffffffffffffff1603610ca05760006040517f89c62b64000000000000000000000000000000000000000000000000000000008152600401610c979190612786565b60405180910390fd5b600360008373ffffffffffffffffffffffffffffffffffffffff1673ffffffffffffffffffffffffffffffffffffffff168152602001908152602001600020549050919050565b610cef611ae2565b610cf96000611b69565b565b6000600660009054906101000a900473ffffffffffffffffffffffffffffffffffffffff16905090565b606060018054610d3490612ec6565b80601f0160208091040260200160405190810160405280929190818152602001828054610d6090612ec6565b8015610dad5780601f10610d8257610100808354040283529160200191610dad565b820191906000526020600020905b815481529060010190602001808311610d9057829003601f168201915b5050505050905090565b610dc9610dc261185e565b8383611c2f565b5050565b600b5481565b610dde848484610967565b610df2610de961185e565b85858585611d9e565b50505050565b60606000600a60008481526020019081526020016000208054610e1a90612ec6565b905011610e5c576040517f08c379a0000000000000000000000000000000000000000000000000000000008152600401610e5390613098565b60405180910390fd5b600a60008381526020019081526020016000208054610e7a90612ec6565b80601f0160208091040260200160405190810160405280929190818152602001828054610ea690612ec6565b8015610ef35780601f10610ec857610100808354040283529160200191610ef3565b820191906000526020600020905b815481529060010190602001808311610ed657829003601f168201915b50505050509050919050565b60008251905060008111610f48576040517f08c379a0000000000000000000000000000000000000000000000000000000008152600401610f3f90613104565b60405180910390fd5b81518114610f8b576040517f08c379a0000000000000000000000000000000000000000000000000000000008152600401610f8290613170565b60405180910390fd5b6103e86bffffffffffffffffffffffff1681600c54610faa91906131bf565b1115610feb576040517f08c379a0000000000000000000000000000000000000000000000000000000008152600401610fe29061323f565b60405180910390fd5b60005b8181101561121b576000600c5490506110073082611f4f565b84828151811061101a5761101961325f565b5b6020026020010151600a60008381526020019081526020016000209081611041919061343a565b5060405180608001604052803373ffffffffffffffffffffffffffffffffffffffff16815260200185848151811061107c5761107b61325f565b5b60200260200101516bffffffffffffffffffffffff1681526020016000151581526020018684815181106110b3576110b261325f565b5b60200260200101518152506008600083815260200190815260200160002060008201518160000160006101000a81548173ffffffffffffffffffffffffffffffffffffffff021916908373ffffffffffffffffffffffffffffffffffffffff16021790555060208201518160000160146101000a8154816bffffffffffffffffffffffff02191690836bffffffffffffffffffffffff16021790555060408201518160010160006101000a81548160ff0219169083151502179055506060820151816002019081611184919061343a565b509050507f74853d0857487d8ab8813c4ff8c6740981eaa76fc83634f27c8f6b51d90b79d081338685815181106111be576111bd61325f565b5b60200260200101516040516111d59392919061350c565b60405180910390a1600c60008154809291906111f090613543565b9190505550600b600081548092919061120890613543565b9190505550508080600101915050610fee565b50505050565b611229611ae2565b611234306001610db7565b565b61123e611a92565b7f492bb73cced98eea98641830826274e5b42a3a0de8ec091fa0ce87410a3700873460405161126d919061292a565b60405180910390a1600060086000838152602001908152602001600020905060008160000160149054906101000a90046bffffffffffffffffffffffff166bffffffffffffffffffffffff16116112f9576040517f08c379a00000000000000000000000000000000000000000000000000000000081526004016112f0906135d7565b60405180910390fd5b8060010160009054906101000a900460ff161561134b576040517f08c379a000000000000000000000000000000000000000000000000000000000815260040161134290613643565b60405180910390fd5b8060000160149054906101000a90046bffffffffffffffffffffffff166bffffffffffffffffffffffff1634146113b7576040517f08c379a00000000000000000000000000000000000000000000000000000000081526004016113ae906136af565b60405180910390fd5b60018160010160006101000a81548160ff0219169083151502179055508060000160149054906101000a90046bffffffffffffffffffffffff166bffffffffffffffffffffffff16600960008360000160009054906101000a900473ffffffffffffffffffffffffffffffffffffffff1673ffffffffffffffffffffffffffffffffffffffff1673ffffffffffffffffffffffffffffffffffffffff168152602001908152602001600020600082825461147191906131bf565b9250508190555061149330338460405180602001604052806000815250612048565b7f10398926f289f5e9e67a5906e08de3c9692f386c286650b189a7e72cec5cbcb582338360000160149054906101000a90046bffffffffffffffffffffffff166040516114e29392919061350c565b60405180910390a1506114f3611ad8565b50565b60086020528060005260406000206000915090508060000160009054906101000a900473ffffffffffffffffffffffffffffffffffffffff16908060000160149054906101000a90046bffffffffffffffffffffffff16908060010160009054906101000a900460ff169080600201805461157090612ec6565b80601f016020809104026020016040519081016040528092919081815260200182805461159c90612ec6565b80156115e95780601f106115be576101008083540402835291602001916115e9565b820191906000526020600020905b8154815290600101906020018083116115cc57829003601f168201915b5050505050905084565b6000600560008473ffffffffffffffffffffffffffffffffffffffff1673ffffffffffffffffffffffffffffffffffffffff16815260200190815260200160002060008373ffffffffffffffffffffffffffffffffffffffff1673ffffffffffffffffffffffffffffffffffffffff16815260200190815260200160002060009054906101000a900460ff16905092915050565b61168f611ae2565b600073ffffffffffffffffffffffffffffffffffffffff168173ffffffffffffffffffffffffffffffffffffffff16036117015760006040517f1e4fbdf70000000000000000000000000000000000000000000000000000000081526004016116f89190612786565b60405180910390fd5b61170a81611b69565b50565b60096020528060005260406000206000915090505481565b6000600b54905090565b60007f01ffc9a7000000000000000000000000000000000000000000000000000000007bffffffffffffffffffffffffffffffffffffffffffffffffffffffff1916827bffffffffffffffffffffffffffffffffffffffffffffffffffffffff1916149050919050565b6000806117a58361206d565b9050600073ffffffffffffffffffffffffffffffffffffffff168173ffffffffffffffffffffffffffffffffffffffff160361181857826040517f7e27328900000000000000000000000000000000000000000000000000000000815260040161180f919061292a565b60405180910390fd5b80915050919050565b60006004600083815260200190815260200160002060009054906101000a900473ffffffffffffffffffffffffffffffffffffffff169050919050565b600033905090565b61187383838360016120aa565b505050565b6000806118848461206d565b9050600073ffffffffffffffffffffffffffffffffffffffff168373ffffffffffffffffffffffffffffffffffffffff16146118c6576118c581848661226f565b5b600073ffffffffffffffffffffffffffffffffffffffff168173ffffffffffffffffffffffffffffffffffffffff1614611957576119086000856000806120aa565b6001600360008373ffffffffffffffffffffffffffffffffffffffff1673ffffffffffffffffffffffffffffffffffffffff168152602001908152602001600020600082825403925050819055505b600073ffffffffffffffffffffffffffffffffffffffff168573ffffffffffffffffffffffffffffffffffffffff16146119da576001600360008773ffffffffffffffffffffffffffffffffffffffff1673ffffffffffffffffffffffffffffffffffffffff168152602001908152602001600020600082825401925050819055505b846002600086815260200190815260200160002060006101000a81548173ffffffffffffffffffffffffffffffffffffffff021916908373ffffffffffffffffffffffffffffffffffffffff160217905550838573ffffffffffffffffffffffffffffffffffffffff168273ffffffffffffffffffffffffffffffffffffffff167fddf252ad1be2c89b69c2b068fc378daa952ba7f163c4a11628f55a4df523b3ef60405160405180910390a4809150509392505050565b600260075403611ace576040517f3ee5aeb500000000000000000000000000000000000000000000000000000000815260040160405180910390fd5b6002600781905550565b6001600781905550565b611aea61185e565b73ffffffffffffffffffffffffffffffffffffffff16611b08610cfb565b73ffffffffffffffffffffffffffffffffffffffff1614611b6757611b2b61185e565b6040517f118cdaa7000000000000000000000000000000000000000000000000000000008152600401611b5e9190612786565b60405180910390fd5b565b6000600660009054906101000a900473ffffffffffffffffffffffffffffffffffffffff16905081600660006101000a81548173ffffffffffffffffffffffffffffffffffffffff021916908373ffffffffffffffffffffffffffffffffffffffff1602179055508173ffffffffffffffffffffffffffffffffffffffff168173ffffffffffffffffffffffffffffffffffffffff167f8be0079c531659141344cd1fd0a4f28419497f9722a3daafe3b4186f6b6457e060405160405180910390a35050565b600073ffffffffffffffffffffffffffffffffffffffff168273ffffffffffffffffffffffffffffffffffffffff1603611ca057816040517f5b08ba18000000000000000000000000000000000000000000000000000000008152600401611c979190612786565b60405180910390fd5b80600560008573ffffffffffffffffffffffffffffffffffffffff1673ffffffffffffffffffffffffffffffffffffffff16815260200190815260200160002060008473ffffffffffffffffffffffffffffffffffffffff1673ffffffffffffffffffffffffffffffffffffffff16815260200190815260200160002060006101000a81548160ff0219169083151502179055508173ffffffffffffffffffffffffffffffffffffffff168373ffffffffffffffffffffffffffffffffffffffff167f17307eab39ab6107e8899845ad3d59bd9653f200f220920489ca2b5937696c3183604051611d919190612615565b60405180910390a3505050565b60008373ffffffffffffffffffffffffffffffffffffffff163b1115611f48578273ffffffffffffffffffffffffffffffffffffffff1663150b7a02868685856040518563ffffffff1660e01b8152600401611dfd9493929190613724565b6020604051808303816000875af1925050508015611e3957506040513d601f19601f82011682018060405250810190611e369190613785565b60015b611ebd573d8060008114611e69576040519150601f19603f3d011682016040523d82523d6000602084013e611e6e565b606091505b506000815103611eb557836040517f64a0ae92000000000000000000000000000000000000000000000000000000008152600401611eac9190612786565b60405180910390fd5b805181602001fd5b63150b7a0260e01b7bffffffffffffffffffffffffffffffffffffffffffffffffffffffff1916817bffffffffffffffffffffffffffffffffffffffffffffffffffffffff191614611f4657836040517f64a0ae92000000000000000000000000000000000000000000000000000000008152600401611f3d9190612786565b60405180910390fd5b505b5050505050565b600073ffffffffffffffffffffffffffffffffffffffff168273ffffffffffffffffffffffffffffffffffffffff1603611fc15760006040517f64a0ae92000000000000000000000000000000000000000000000000000000008152600401611fb89190612786565b60405180910390fd5b6000611fcf83836000611878565b9050600073ffffffffffffffffffffffffffffffffffffffff168173ffffffffffffffffffffffffffffffffffffffff16146120435760006040517f73c6ac6e00000000000000000000000000000000000000000000000000000000815260040161203a9190612786565b60405180910390fd5b505050565b612053848484612333565b61206761205e61185e565b85858585611d9e565b50505050565b60006002600083815260200190815260200160002060009054906101000a900473ffffffffffffffffffffffffffffffffffffffff169050919050565b80806120e35750600073ffffffffffffffffffffffffffffffffffffffff168273ffffffffffffffffffffffffffffffffffffffff1614155b156122175760006120f384611799565b9050600073ffffffffffffffffffffffffffffffffffffffff168373ffffffffffffffffffffffffffffffffffffffff161415801561215e57508273ffffffffffffffffffffffffffffffffffffffff168173ffffffffffffffffffffffffffffffffffffffff1614155b8015612171575061216f81846115f3565b155b156121b357826040517fa9fbf51f0000000000000000000000000000000000000000000000000000000081526004016121aa9190612786565b60405180910390fd5b811561221557838573ffffffffffffffffffffffffffffffffffffffff168273ffffffffffffffffffffffffffffffffffffffff167f8c5be1e5ebec7d5bd14f71427d1e84f3dd0314c0f7b2291e5b200ac8c7c3b92560405160405180910390a45b505b836004600085815260200190815260200160002060006101000a81548173ffffffffffffffffffffffffffffffffffffffff021916908373ffffffffffffffffffffffffffffffffffffffff16021790555050505050565b61227a8383836124a0565b61232e57600073ffffffffffffffffffffffffffffffffffffffff168373ffffffffffffffffffffffffffffffffffffffff16036122ef57806040517f7e2732890000000000000000000000000000000000000000000000000000000081526004016122e6919061292a565b60405180910390fd5b81816040517f177e802f0000000000000000000000000000000000000000000000000000000081526004016123259291906137b2565b60405180910390fd5b505050565b600073ffffffffffffffffffffffffffffffffffffffff168273ffffffffffffffffffffffffffffffffffffffff16036123a55760006040517f64a0ae9200000000000000000000000000000000000000000000000000000000815260040161239c9190612786565b60405180910390fd5b60006123b383836000611878565b9050600073ffffffffffffffffffffffffffffffffffffffff168173ffffffffffffffffffffffffffffffffffffffff160361242657816040517f7e27328900000000000000000000000000000000000000000000000000000000815260040161241d919061292a565b60405180910390fd5b8373ffffffffffffffffffffffffffffffffffffffff168173ffffffffffffffffffffffffffffffffffffffff161461249a578382826040517f64283d7b00000000000000000000000000000000000000000000000000000000815260040161249193929190612ef7565b60405180910390fd5b50505050565b60008073ffffffffffffffffffffffffffffffffffffffff168373ffffffffffffffffffffffffffffffffffffffff161415801561255857508273ffffffffffffffffffffffffffffffffffffffff168473ffffffffffffffffffffffffffffffffffffffff161480612519575061251884846115f3565b5b8061255757508273ffffffffffffffffffffffffffffffffffffffff1661253f83611821565b73ffffffffffffffffffffffffffffffffffffffff16145b5b90509392505050565b6000604051905090565b600080fd5b600080fd5b60007fffffffff0000000000000000000000000000000000000000000000000000000082169050919050565b6125aa81612575565b81146125b557600080fd5b50565b6000813590506125c7816125a1565b92915050565b6000602082840312156125e3576125e261256b565b5b60006125f1848285016125b8565b91505092915050565b60008115159050919050565b61260f816125fa565b82525050565b600060208201905061262a6000830184612606565b92915050565b600081519050919050565b600082825260208201905092915050565b60005b8381101561266a57808201518184015260208101905061264f565b60008484015250505050565b6000601f19601f8301169050919050565b600061269282612630565b61269c818561263b565b93506126ac81856020860161264c565b6126b581612676565b840191505092915050565b600060208201905081810360008301526126da8184612687565b905092915050565b6000819050919050565b6126f5816126e2565b811461270057600080fd5b50565b600081359050612712816126ec565b92915050565b60006020828403121561272e5761272d61256b565b5b600061273c84828501612703565b91505092915050565b600073ffffffffffffffffffffffffffffffffffffffff82169050919050565b600061277082612745565b9050919050565b61278081612765565b82525050565b600060208201905061279b6000830184612777565b92915050565b6127aa81612765565b81146127b557600080fd5b50565b6000813590506127c7816127a1565b92915050565b600080604083850312156127e4576127e361256b565b5b60006127f2858286016127b8565b925050602061280385828601612703565b9150509250929050565b60006bffffffffffffffffffffffff82169050919050565b61282e8161280d565b82525050565b60006080820190506128496000830187612777565b6128566020830186612825565b6128636040830185612606565b81810360608301526128758184612687565b905095945050505050565b6000806000606084860312156128995761289861256b565b5b60006128a7868287016127b8565b93505060206128b8868287016127b8565b92505060406128c986828701612703565b9150509250925092565b60006020820190506128e86000830184612825565b92915050565b6000602082840312156129045761290361256b565b5b6000612912848285016127b8565b91505092915050565b612924816126e2565b82525050565b600060208201905061293f600083018461291b565b92915050565b61294e816125fa565b811461295957600080fd5b50565b60008135905061296b81612945565b92915050565b600080604083850312156129885761298761256b565b5b6000612996858286016127b8565b92505060206129a78582860161295c565b9150509250929050565b600080fd5b600080fd5b7f4e487b7100000000000000000000000000000000000000000000000000000000600052604160045260246000fd5b6129f382612676565b810181811067ffffffffffffffff82111715612a1257612a116129bb565b5b80604052505050565b6000612a25612561565b9050612a3182826129ea565b919050565b600067ffffffffffffffff821115612a5157612a506129bb565b5b612a5a82612676565b9050602081019050919050565b82818337600083830152505050565b6000612a89612a8484612a36565b612a1b565b905082815260208101848484011115612aa557612aa46129b6565b5b612ab0848285612a67565b509392505050565b600082601f830112612acd57612acc6129b1565b5b8135612add848260208601612a76565b91505092915050565b60008060008060808587031215612b0057612aff61256b565b5b6000612b0e878288016127b8565b9450506020612b1f878288016127b8565b9350506040612b3087828801612703565b925050606085013567ffffffffffffffff811115612b5157612b50612570565b5b612b5d87828801612ab8565b91505092959194509250565b600067ffffffffffffffff821115612b8457612b836129bb565b5b602082029050602081019050919050565b600080fd5b600067ffffffffffffffff821115612bb557612bb46129bb565b5b612bbe82612676565b9050602081019050919050565b6000612bde612bd984612b9a565b612a1b565b905082815260208101848484011115612bfa57612bf96129b6565b5b612c05848285612a67565b509392505050565b600082601f830112612c2257612c216129b1565b5b8135612c32848260208601612bcb565b91505092915050565b6000612c4e612c4984612b69565b612a1b565b90508083825260208201905060208402830185811115612c7157612c70612b95565b5b835b81811015612cb857803567ffffffffffffffff811115612c9657612c956129b1565b5b808601612ca38982612c0d565b85526020850194505050602081019050612c73565b5050509392505050565b600082601f830112612cd757612cd66129b1565b5b8135612ce7848260208601612c3b565b91505092915050565b600067ffffffffffffffff821115612d0b57612d0a6129bb565b5b602082029050602081019050919050565b612d258161280d565b8114612d3057600080fd5b50565b600081359050612d4281612d1c565b92915050565b6000612d5b612d5684612cf0565b612a1b565b90508083825260208201905060208402830185811115612d7e57612d7d612b95565b5b835b81811015612da75780612d938882612d33565b845260208401935050602081019050612d80565b5050509392505050565b600082601f830112612dc657612dc56129b1565b5b8135612dd6848260208601612d48565b91505092915050565b60008060408385031215612df657612df561256b565b5b600083013567ffffffffffffffff811115612e1457612e13612570565b5b612e2085828601612cc2565b925050602083013567ffffffffffffffff811115612e4157612e40612570565b5b612e4d85828601612db1565b9150509250929050565b60008060408385031215612e6e57612e6d61256b565b5b6000612e7c858286016127b8565b9250506020612e8d858286016127b8565b9150509250929050565b7f4e487b7100000000000000000000000000000000000000000000000000000000600052602260045260246000fd5b60006002820490506001821680612ede57607f821691505b602082108103612ef157612ef0612e97565b5b50919050565b6000606082019050612f0c6000830186612777565b612f19602083018561291b565b612f266040830184612777565b949350505050565b7f4e6f7468696e6720746f20776974686472617700000000000000000000000000600082015250565b6000612f6460138361263b565b9150612f6f82612f2e565b602082019050919050565b60006020820190508181036000830152612f9381612f57565b9050919050565b600081905092915050565b50565b6000612fb5600083612f9a565b9150612fc082612fa5565b600082019050919050565b6000612fd682612fa8565b9150819050919050565b7f5472616e73666572206661696c65640000000000000000000000000000000000600082015250565b6000613016600f8361263b565b915061302182612fe0565b602082019050919050565b6000602082019050818103600083015261304581613009565b9050919050565b7f55524920717565727920666f72206e6f6e6578697374656e7420746f6b656e00600082015250565b6000613082601f8361263b565b915061308d8261304c565b602082019050919050565b600060208201905081810360008301526130b181613075565b9050919050565b7f456d707479206261746368000000000000000000000000000000000000000000600082015250565b60006130ee600b8361263b565b91506130f9826130b8565b602082019050919050565b6000602082019050818103600083015261311d816130e1565b9050919050565b7f4d69736d61746368656420696e70757473000000000000000000000000000000600082015250565b600061315a60118361263b565b915061316582613124565b602082019050919050565b600060208201905081810360008301526131898161314d565b9050919050565b7f4e487b7100000000000000000000000000000000000000000000000000000000600052601160045260246000fd5b60006131ca826126e2565b91506131d5836126e2565b92508282019050808211156131ed576131ec613190565b5b92915050565b7f4d617820737570706c7920657863656564656400000000000000000000000000600082015250565b600061322960138361263b565b9150613234826131f3565b602082019050919050565b600060208201905081810360008301526132588161321c565b9050919050565b7f4e487b7100000000000000000000000000000000000000000000000000000000600052603260045260246000fd5b60008190508160005260206000209050919050565b60006020601f8301049050919050565b600082821b905092915050565b6000600883026132f07fffffffffffffffffffffffffffffffffffffffffffffffffffffffffffffffff826132b3565b6132fa86836132b3565b95508019841693508086168417925050509392505050565b6000819050919050565b600061333761333261332d846126e2565b613312565b6126e2565b9050919050565b6000819050919050565b6133518361331c565b61336561335d8261333e565b8484546132c0565b825550505050565b600090565b61337a61336d565b613385818484613348565b505050565b5b818110156133a95761339e600082613372565b60018101905061338b565b5050565b601f8211156133ee576133bf8161328e565b6133c8846132a3565b810160208510156133d7578190505b6133eb6133e3856132a3565b83018261338a565b50505b505050565b600082821c905092915050565b6000613411600019846008026133f3565b1980831691505092915050565b600061342a8383613400565b9150826002028217905092915050565b61344382612630565b67ffffffffffffffff81111561345c5761345b6129bb565b5b6134668254612ec6565b6134718282856133ad565b600060209050601f8311600181146134a45760008415613492578287015190505b61349c858261341e565b865550613504565b601f1984166134b28661328e565b60005b828110156134da578489015182556001820191506020850194506020810190506134b5565b868310156134f757848901516134f3601f891682613400565b8355505b6001600288020188555050505b505050505050565b6000606082019050613521600083018661291b565b61352e6020830185612777565b61353b6040830184612825565b949350505050565b600061354e826126e2565b91507fffffffffffffffffffffffffffffffffffffffffffffffffffffffffffffffff82036135805761357f613190565b5b600182019050919050565b7f4e4654206e6f206c69737461646f000000000000000000000000000000000000600082015250565b60006135c1600e8361263b565b91506135cc8261358b565b602082019050919050565b600060208201905081810360008301526135f0816135b4565b9050919050565b7f416c726561647920736f6c640000000000000000000000000000000000000000600082015250565b600061362d600c8361263b565b9150613638826135f7565b602082019050919050565b6000602082019050818103600083015261365c81613620565b9050919050565b7f4578616374207061796d656e7420726571756972656400000000000000000000600082015250565b600061369960168361263b565b91506136a482613663565b602082019050919050565b600060208201905081810360008301526136c88161368c565b9050919050565b600081519050919050565b600082825260208201905092915050565b60006136f6826136cf565b61370081856136da565b935061371081856020860161264c565b61371981612676565b840191505092915050565b60006080820190506137396000830187612777565b6137466020830186612777565b613753604083018561291b565b818103606083015261376581846136eb565b905095945050505050565b60008151905061377f816125a1565b92915050565b60006020828403121561379b5761379a61256b565b5b60006137a984828501613770565b91505092915050565b60006040820190506137c76000830185612777565b6137d4602083018461291b565b939250505056fea264697066735822122001ef4a87a9a642e8047fd76f48396643f13451a1e3ec8fb7c4ea8f4ca04b05ff64736f6c634300081c0033",
  "linkReferences": {},
  "deployedLinkReferences": {}
}